{
  "_format": "hh-sol-artifact-1",
  "contractName": "InstitutionRegistry",
  "sourceName": "contracts/InstitutionRegistry.sol",
  "abi": [
    {
      "inputs": [],
      "stateMutability": "nonpayable",
      "type": "constructor"
    },
    {
      "anonymous": false,
      "inputs": [
        {
          "indexed": true,
          "internalType": "address",
          "name": "institution",
          "type": "address"
        }
      ],
      "name": "InstitutionDeactivated",
      "type": "event"
    },
    {
      "anonymous": false,
      "inputs": [
        {
          "indexed": true,
          "internalType": "address",
          "name": "institution",
          "type": "address"
        },
        {
          "indexed": false,
          "internalType": "string",
          "name": "name",
          "type": "string"
        }
      ],
      "name": "InstitutionRegistered",
      "type": "event"
    },
    {
      "anonymous": false,
      "inputs": [
        {
          "indexed": true,
          "internalType": "address",
          "name": "previousOwner",
          "type": "address"
        },
        {
          "indexed": true,
          "internalType": "address",
          "name": "newOwner",
          "type": "address"
        }
      ],
      "name": "OwnershipTransferred",
      "type": "event"
    },
    {
      "inputs": [
        {
          "internalType": "address",
          "name": "_wallet",
          "type": "address"
        }
      ],
      "name": "deactivateInstitution",
      "outputs": [],
      "stateMutability": "nonpayable",
      "type": "function"
    },
    {
      "inputs": [],
      "name": "getAllInstitutions",
      "outputs": [
        {
          "internalType": "address[]",
          "name": "",
          "type": "address[]"
        }
      ],
      "stateMutability": "view",
      "type": "function"
    },
    {
      "inputs": [
        {
          "internalType": "address",
          "name": "_wallet",
          "type": "address"
        }
      ],
      "name": "getInstitution",
      "outputs": [
        {
          "internalType": "string",
          "name": "name",
          "type": "string"
        },
        {
          "internalType": "string",
          "name": "website",
          "type": "string"
        },
        {
          "internalType": "bool",
          "name": "isActive",
          "type": "bool"
        },
        {
          "internalType": "uint256",
          "name": "registeredAt",
          "type": "uint256"
        }
      ],
      "stateMutability": "view",
      "type": "function"
    },
    {
      "inputs": [
        {
          "internalType": "uint256",
          "name": "",
          "type": "uint256"
        }
      ],
      "name": "institutionAddresses",
      "outputs": [
        {
          "internalType": "address",
          "name": "",
          "type": "address"
        }
      ],
      "stateMutability": "view",
      "type": "function"
    },
    {
      "inputs": [
        {
          "internalType": "bytes32",
          "name": "",
          "type": "bytes32"
        }
      ],
      "name": "institutionExists",
      "outputs": [
        {
          "internalType": "bool",
          "name": "",
          "type": "bool"
        }
      ],
      "stateMutability": "view",
      "type": "function"
    },
    {
      "inputs": [
        {
          "internalType": "address",
          "name": "",
          "type": "address"
        }
      ],
      "name": "institutions",
      "outputs": [
        {
          "internalType": "string",
          "name": "name",
          "type": "string"
        },
        {
          "internalType": "string",
          "name": "website",
          "type": "string"
        },
        {
          "internalType": "address",
          "name": "wallet",
          "type": "address"
        },
        {
          "internalType": "bool",
          "name": "isActive",
          "type": "bool"
        },
        {
          "internalType": "uint256",
          "name": "registeredAt",
          "type": "uint256"
        }
      ],
      "stateMutability": "view",
      "type": "function"
    },
    {
      "inputs": [
        {
          "internalType": "address",
          "name": "_wallet",
          "type": "address"
        }
      ],
      "name": "isRegisteredInstitution",
      "outputs": [
        {
          "internalType": "bool",
          "name": "",
          "type": "bool"
        }
      ],
      "stateMutability": "view",
      "type": "function"
    },
    {
      "inputs": [],
      "name": "owner",
      "outputs": [
        {
          "internalType": "address",
          "name": "",
          "type": "address"
        }
      ],
      "stateMutability": "view",
      "type": "function"
    },
    {
      "inputs": [
        {
          "internalType": "address",
          "name": "_wallet",
          "type": "address"
        },
        {
          "internalType": "string",
          "name": "_name",
          "type": "string"
        },
        {
          "internalType": "string",
          "name": "_website",
          "type": "string"
        }
      ],
      "name": "registerInstitution",
      "outputs": [],
      "stateMutability": "nonpayable",
      "type": "function"
    },
    {
      "inputs": [],
      "name": "renounceOwnership",
      "outputs": [],
      "stateMutability": "nonpayable",
      "type": "function"
    },
    {
      "inputs": [
        {
          "internalType": "address",
          "name": "newOwner",
          "type": "address"
        }
      ],
      "name": "transferOwnership",
      "outputs": [],
      "stateMutability": "nonpayable",
      "type": "function"
    }
  ],
  "bytecode": "0x608060405234801561001057600080fd5b5061002d61002261003260201b60201c565b61003a60201b60201c565b6100fe565b600033905090565b60008060009054906101000a900473ffffffffffffffffffffffffffffffffffffffff169050816000806101000a81548173ffffffffffffffffffffffffffffffffffffffff021916908373ffffffffffffffffffffffffffffffffffffffff1602179055508173ffffffffffffffffffffffffffffffffffffffff168173ffffffffffffffffffffffffffffffffffffffff167f8be0079c531659141344cd1fd0a4f28419497f9722a3daafe3b4186f6b6457e060405160405180910390a35050565b611a0a8061010d6000396000f3fe608060405234801561001057600080fd5b50600436106100a95760003560e01c80638da5cb5b116100715780638da5cb5b14610155578063adcba4a114610173578063b2d9767f146101a3578063c6bd734e146101d7578063d93ec2b6146101f3578063f2fde38b14610223576100a9565b8063226acd46146100ae5780634104180e146100ca57806371199236146100e8578063715018a61461011b5780637f41683514610125575b600080fd5b6100c860048036038101906100c39190610fa0565b61023f565b005b6100d26105d6565b6040516100df91906110e9565b60405180910390f35b61010260048036038101906100fd919061110b565b610664565b60405161011294939291906111eb565b60405180910390f35b61012361087b565b005b61013f600480360381019061013a919061126a565b61088f565b60405161014c91906112a6565b60405180910390f35b61015d6108ce565b60405161016a91906112a6565b60405180910390f35b61018d600480360381019061018891906112f7565b6108f7565b60405161019a9190611324565b60405180910390f35b6101bd60048036038101906101b8919061110b565b610917565b6040516101ce95949392919061133f565b60405180910390f35b6101f160048036038101906101ec919061110b565b610a8a565b005b61020d6004803603810190610208919061110b565b610bc2565b60405161021a9190611324565b60405180910390f35b61023d6004803603810190610238919061110b565b610c1b565b005b610247610c9e565b600073ffffffffffffffffffffffffffffffffffffffff168373ffffffffffffffffffffffffffffffffffffffff16036102b6576040517f08c379a00000000000000000000000000000000000000000000000000000000081526004016102ad906113ec565b60405180910390fd5b600160008473ffffffffffffffffffffffffffffffffffffffff1673ffffffffffffffffffffffffffffffffffffffff16815260200190815260200160002060020160149054906101000a900460ff1615610346576040517f08c379a000000000000000000000000000000000000000000000000000000000815260040161033d90611458565b60405180910390fd5b6000828260405160200161035b9291906114b4565b6040516020818303038152906040528051906020012090506002600082815260200190815260200160002060009054906101000a900460ff16156103d4576040517f08c379a00000000000000000000000000000000000000000000000000000000081526004016103cb9061154a565b60405180910390fd5b6040518060a001604052808481526020018381526020018573ffffffffffffffffffffffffffffffffffffffff16815260200160011515815260200142815250600160008673ffffffffffffffffffffffffffffffffffffffff1673ffffffffffffffffffffffffffffffffffffffff16815260200190815260200160002060008201518160000190816104689190611776565b50602082015181600101908161047e9190611776565b5060408201518160020160006101000a81548173ffffffffffffffffffffffffffffffffffffffff021916908373ffffffffffffffffffffffffffffffffffffffff16021790555060608201518160020160146101000a81548160ff0219169083151502179055506080820151816003015590505060016002600083815260200190815260200160002060006101000a81548160ff0219169083151502179055506003849080600181540180825580915050600190039060005260206000200160009091909190916101000a81548173ffffffffffffffffffffffffffffffffffffffff021916908373ffffffffffffffffffffffffffffffffffffffff1602179055508373ffffffffffffffffffffffffffffffffffffffff167f73a52c071d4a02996481449bf1ad04d8f24559a7ec51210c4ec5e43d3baee881846040516105c89190611848565b60405180910390a250505050565b6060600380548060200260200160405190810160405280929190818152602001828054801561065a57602002820191906000526020600020905b8160009054906101000a900473ffffffffffffffffffffffffffffffffffffffff1673ffffffffffffffffffffffffffffffffffffffff1681526020019060010190808311610610575b5050505050905090565b6060806000806000600160008773ffffffffffffffffffffffffffffffffffffffff1673ffffffffffffffffffffffffffffffffffffffff1681526020019081526020016000206040518060a00160405290816000820180546106c690611599565b80601f01602080910402602001604051908101604052809291908181526020018280546106f290611599565b801561073f5780601f106107145761010080835404028352916020019161073f565b820191906000526020600020905b81548152906001019060200180831161072257829003601f168201915b5050505050815260200160018201805461075890611599565b80601f016020809104026020016040519081016040528092919081815260200182805461078490611599565b80156107d15780601f106107a6576101008083540402835291602001916107d1565b820191906000526020600020905b8154815290600101906020018083116107b457829003601f168201915b505050505081526020016002820160009054906101000a900473ffffffffffffffffffffffffffffffffffffffff1673ffffffffffffffffffffffffffffffffffffffff1673ffffffffffffffffffffffffffffffffffffffff1681526020016002820160149054906101000a900460ff16151515158152602001600382015481525050905080600001518160200151826060015183608001519450945094509450509193509193565b610883610c9e565b61088d6000610d1c565b565b6003818154811061089f57600080fd5b906000526020600020016000915054906101000a900473ffffffffffffffffffffffffffffffffffffffff1681565b60008060009054906101000a900473ffffffffffffffffffffffffffffffffffffffff16905090565b60026020528060005260406000206000915054906101000a900460ff1681565b600160205280600052604060002060009150905080600001805461093a90611599565b80601f016020809104026020016040519081016040528092919081815260200182805461096690611599565b80156109b35780601f10610988576101008083540402835291602001916109b3565b820191906000526020600020905b81548152906001019060200180831161099657829003601f168201915b5050505050908060010180546109c890611599565b80601f01602080910402602001604051908101604052809291908181526020018280546109f490611599565b8015610a415780601f10610a1657610100808354040283529160200191610a41565b820191906000526020600020905b815481529060010190602001808311610a2457829003601f168201915b5050505050908060020160009054906101000a900473ffffffffffffffffffffffffffffffffffffffff16908060020160149054906101000a900460ff16908060030154905085565b610a92610c9e565b600160008273ffffffffffffffffffffffffffffffffffffffff1673ffffffffffffffffffffffffffffffffffffffff16815260200190815260200160002060020160149054906101000a900460ff16610b21576040517f08c379a0000000000000000000000000000000000000000000000000000000008152600401610b18906118b6565b60405180910390fd5b6000600160008373ffffffffffffffffffffffffffffffffffffffff1673ffffffffffffffffffffffffffffffffffffffff16815260200190815260200160002060020160146101000a81548160ff0219169083151502179055508073ffffffffffffffffffffffffffffffffffffffff167f805426965bf84411d1252c51430c8a578c088f2ee694e93ac6ac88104fb1dae460405160405180910390a250565b6000600160008373ffffffffffffffffffffffffffffffffffffffff1673ffffffffffffffffffffffffffffffffffffffff16815260200190815260200160002060020160149054906101000a900460ff169050919050565b610c23610c9e565b600073ffffffffffffffffffffffffffffffffffffffff168173ffffffffffffffffffffffffffffffffffffffff1603610c92576040517f08c379a0000000000000000000000000000000000000000000000000000000008152600401610c8990611948565b60405180910390fd5b610c9b81610d1c565b50565b610ca6610de0565b73ffffffffffffffffffffffffffffffffffffffff16610cc46108ce565b73ffffffffffffffffffffffffffffffffffffffff1614610d1a576040517f08c379a0000000000000000000000000000000000000000000000000000000008152600401610d11906119b4565b60405180910390fd5b565b60008060009054906101000a900473ffffffffffffffffffffffffffffffffffffffff169050816000806101000a81548173ffffffffffffffffffffffffffffffffffffffff021916908373ffffffffffffffffffffffffffffffffffffffff1602179055508173ffffffffffffffffffffffffffffffffffffffff168173ffffffffffffffffffffffffffffffffffffffff167f8be0079c531659141344cd1fd0a4f28419497f9722a3daafe3b4186f6b6457e060405160405180910390a35050565b600033905090565b6000604051905090565b600080fd5b600080fd5b600073ffffffffffffffffffffffffffffffffffffffff82169050919050565b6000610e2782610dfc565b9050919050565b610e3781610e1c565b8114610e4257600080fd5b50565b600081359050610e5481610e2e565b92915050565b600080fd5b600080fd5b6000601f19601f8301169050919050565b7f4e487b7100000000000000000000000000000000000000000000000000000000600052604160045260246000fd5b610ead82610e64565b810181811067ffffffffffffffff82111715610ecc57610ecb610e75565b5b80604052505050565b6000610edf610de8565b9050610eeb8282610ea4565b919050565b600067ffffffffffffffff821115610f0b57610f0a610e75565b5b610f1482610e64565b9050602081019050919050565b82818337600083830152505050565b6000610f43610f3e84610ef0565b610ed5565b905082815260208101848484011115610f5f57610f5e610e5f565b5b610f6a848285610f21565b509392505050565b600082601f830112610f8757610f86610e5a565b5b8135610f97848260208601610f30565b91505092915050565b600080600060608486031215610fb957610fb8610df2565b5b6000610fc786828701610e45565b935050602084013567ffffffffffffffff811115610fe857610fe7610df7565b5b610ff486828701610f72565b925050604084013567ffffffffffffffff81111561101557611014610df7565b5b61102186828701610f72565b9150509250925092565b600081519050919050565b600082825260208201905092915050565b6000819050602082019050919050565b61106081610e1c565b82525050565b60006110728383611057565b60208301905092915050565b6000602082019050919050565b60006110968261102b565b6110a08185611036565b93506110ab83611047565b8060005b838110156110dc5781516110c38882611066565b97506110ce8361107e565b9250506001810190506110af565b5085935050505092915050565b60006020820190508181036000830152611103818461108b565b905092915050565b60006020828403121561112157611120610df2565b5b600061112f84828501610e45565b91505092915050565b600081519050919050565b600082825260208201905092915050565b60005b83811015611172578082015181840152602081019050611157565b60008484015250505050565b600061118982611138565b6111938185611143565b93506111a3818560208601611154565b6111ac81610e64565b840191505092915050565b60008115159050919050565b6111cc816111b7565b82525050565b6000819050919050565b6111e5816111d2565b82525050565b60006080820190508181036000830152611205818761117e565b90508181036020830152611219818661117e565b905061122860408301856111c3565b61123560608301846111dc565b95945050505050565b611247816111d2565b811461125257600080fd5b50565b6000813590506112648161123e565b92915050565b6000602082840312156112805761127f610df2565b5b600061128e84828501611255565b91505092915050565b6112a081610e1c565b82525050565b60006020820190506112bb6000830184611297565b92915050565b6000819050919050565b6112d4816112c1565b81146112df57600080fd5b50565b6000813590506112f1816112cb565b92915050565b60006020828403121561130d5761130c610df2565b5b600061131b848285016112e2565b91505092915050565b600060208201905061133960008301846111c3565b92915050565b600060a0820190508181036000830152611359818861117e565b9050818103602083015261136d818761117e565b905061137c6040830186611297565b61138960608301856111c3565b61139660808301846111dc565b9695505050505050565b7f496e76616c69642077616c6c6574206164647265737300000000000000000000600082015250565b60006113d6601683611143565b91506113e1826113a0565b602082019050919050565b60006020820190508181036000830152611405816113c9565b9050919050565b7f496e737469747574696f6e20616c726561647920726567697374657265640000600082015250565b6000611442601e83611143565b915061144d8261140c565b602082019050919050565b6000602082019050818103600083015261147181611435565b9050919050565b600081905092915050565b600061148e82611138565b6114988185611478565b93506114a8818560208601611154565b80840191505092915050565b60006114c08285611483565b91506114cc8284611483565b91508190509392505050565b7f496e737469747574696f6e2064657461696c7320616c7265616479206578697360008201527f7400000000000000000000000000000000000000000000000000000000000000602082015250565b6000611534602183611143565b915061153f826114d8565b604082019050919050565b6000602082019050818103600083015261156381611527565b9050919050565b7f4e487b7100000000000000000000000000000000000000000000000000000000600052602260045260246000fd5b600060028204905060018216806115b157607f821691505b6020821081036115c4576115c361156a565b5b50919050565b60008190508160005260206000209050919050565b60006020601f8301049050919050565b600082821b905092915050565b60006008830261162c7fffffffffffffffffffffffffffffffffffffffffffffffffffffffffffffffff826115ef565b61163686836115ef565b95508019841693508086168417925050509392505050565b6000819050919050565b600061167361166e611669846111d2565b61164e565b6111d2565b9050919050565b6000819050919050565b61168d83611658565b6116a16116998261167a565b8484546115fc565b825550505050565b600090565b6116b66116a9565b6116c1818484611684565b505050565b5b818110156116e5576116da6000826116ae565b6001810190506116c7565b5050565b601f82111561172a576116fb816115ca565b611704846115df565b81016020851015611713578190505b61172761171f856115df565b8301826116c6565b50505b505050565b600082821c905092915050565b600061174d6000198460080261172f565b1980831691505092915050565b6000611766838361173c565b9150826002028217905092915050565b61177f82611138565b67ffffffffffffffff81111561179857611797610e75565b5b6117a28254611599565b6117ad8282856116e9565b600060209050601f8311600181146117e057600084156117ce578287015190505b6117d8858261175a565b865550611840565b601f1984166117ee866115ca565b60005b82811015611816578489015182556001820191506020850194506020810190506117f1565b86831015611833578489015161182f601f89168261173c565b8355505b6001600288020188555050505b505050505050565b60006020820190508181036000830152611862818461117e565b905092915050565b7f496e737469747574696f6e206e6f742061637469766500000000000000000000600082015250565b60006118a0601683611143565b91506118ab8261186a565b602082019050919050565b600060208201905081810360008301526118cf81611893565b9050919050565b7f4f776e61626c653a206e6577206f776e657220697320746865207a65726f206160008201527f6464726573730000000000000000000000000000000000000000000000000000602082015250565b6000611932602683611143565b915061193d826118d6565b604082019050919050565b6000602082019050818103600083015261196181611925565b9050919050565b7f4f776e61626c653a2063616c6c6572206973206e6f7420746865206f776e6572600082015250565b600061199e602083611143565b91506119a982611968565b602082019050919050565b600060208201905081810360008301526119cd81611991565b905091905056fea2646970667358221220c102638337d6e3dbc430eb091cafa3cc02a0d994df058cf40436a698919ab5eb64736f6c63430008130033",
  "linkReferences": {},
  "deployedLinkReferences": {}
}