{
  "_format": "hh-sol-artifact-1",
  "contractName": "VerificationContract",
  "sourceName": "contracts/VerificationContract.sol",
  "abi": [
    {
      "anonymous": false,
      "inputs": [
        {
          "indexed": true,
          "internalType": "bytes32",
          "name": "credentialId",
          "type": "bytes32"
        },
        {
          "indexed": true,
          "internalType": "address",
          "name": "institution",
          "type": "address"
        },
        {
          "indexed": false,
          "internalType": "string",
          "name": "studentName",
          "type": "string"
        }
      ],
      "name": "CredentialIssued",
      "type": "event"
    },
    {
      "inputs": [
        {
          "internalType": "address",
          "name": "_institution",
          "type": "address"
        }
      ],
      "name": "authorizeInstitution",
      "outputs": [],
      "stateMutability": "nonpayable",
      "type": "function"
    },
    {
      "inputs": [
        {
          "internalType": "address",
          "name": "",
          "type": "address"
        }
      ],
      "name": "authorizedInstitutions",
      "outputs": [
        {
          "internalType": "bool",
          "name": "",
          "type": "bool"
        }
      ],
      "stateMutability": "view",
      "type": "function"
    },
    {
      "inputs": [
        {
          "internalType": "bytes32",
          "name": "",
          "type": "bytes32"
        }
      ],
      "name": "credentials",
      "outputs": [
        {
          "internalType": "string",
          "name": "studentName",
          "type": "string"
        },
        {
          "internalType": "string",
          "name": "courseName",
          "type": "string"
        },
        {
          "internalType": "uint256",
          "name": "issueDate",
          "type": "uint256"
        },
        {
          "internalType": "address",
          "name": "institution",
          "type": "address"
        },
        {
          "internalType": "bool",
          "name": "isValid",
          "type": "bool"
        }
      ],
      "stateMutability": "view",
      "type": "function"
    },
    {
      "inputs": [
        {
          "internalType": "bytes32",
          "name": "_credentialId",
          "type": "bytes32"
        },
        {
          "internalType": "string",
          "name": "_studentName",
          "type": "string"
        },
        {
          "internalType": "string",
          "name": "_courseName",
          "type": "string"
        }
      ],
      "name": "issueCredential",
      "outputs": [],
      "stateMutability": "nonpayable",
      "type": "function"
    },
    {
      "inputs": [
        {
          "internalType": "bytes32",
          "name": "_credentialId",
          "type": "bytes32"
        }
      ],
      "name": "verifyCredential",
      "outputs": [
        {
          "internalType": "bool",
          "name": "",
          "type": "bool"
        }
      ],
      "stateMutability": "view",
      "type": "function"
    }
  ],
  "bytecode": "0x608060405234801561001057600080fd5b50610cc6806100206000396000f3fe608060405234801561001057600080fd5b50600436106100575760003560e01c806316b784fe1461005c578063299d03481461008c5780634dbf87cc146100c0578063bd4d8bcb146100f0578063d0f80e771461010c575b600080fd5b61007660048036038101906100719190610585565b610128565b60405161008391906105cd565b60405180910390f35b6100a660048036038101906100a1919061061e565b610148565b6040516100b7959493929190610703565b60405180910390f35b6100da60048036038101906100d5919061061e565b6102bb565b6040516100e791906105cd565b60405180910390f35b61010a60048036038101906101059190610585565b6102e7565b005b61012660048036038101906101219190610899565b610341565b005b60016020528060005260406000206000915054906101000a900460ff1681565b600060205280600052604060002060009150905080600001805461016b90610953565b80601f016020809104026020016040519081016040528092919081815260200182805461019790610953565b80156101e45780601f106101b9576101008083540402835291602001916101e4565b820191906000526020600020905b8154815290600101906020018083116101c757829003601f168201915b5050505050908060010180546101f990610953565b80601f016020809104026020016040519081016040528092919081815260200182805461022590610953565b80156102725780601f1061024757610100808354040283529160200191610272565b820191906000526020600020905b81548152906001019060200180831161025557829003601f168201915b5050505050908060020154908060030160009054906101000a900473ffffffffffffffffffffffffffffffffffffffff16908060030160149054906101000a900460ff16905085565b600080600083815260200190815260200160002060030160149054906101000a900460ff169050919050565b60018060008373ffffffffffffffffffffffffffffffffffffffff1673ffffffffffffffffffffffffffffffffffffffff16815260200190815260200160002060006101000a81548160ff02191690831515021790555050565b600160003373ffffffffffffffffffffffffffffffffffffffff1673ffffffffffffffffffffffffffffffffffffffff16815260200190815260200160002060009054906101000a900460ff166103cd576040517f08c379a00000000000000000000000000000000000000000000000000000000081526004016103c4906109d0565b60405180910390fd5b6040518060a001604052808381526020018281526020014281526020013373ffffffffffffffffffffffffffffffffffffffff1681526020016001151581525060008085815260200190815260200160002060008201518160000190816104349190610b9c565b50602082015181600101908161044a9190610b9c565b506040820151816002015560608201518160030160006101000a81548173ffffffffffffffffffffffffffffffffffffffff021916908373ffffffffffffffffffffffffffffffffffffffff16021790555060808201518160030160146101000a81548160ff0219169083151502179055509050503373ffffffffffffffffffffffffffffffffffffffff16837fa6ffd16850fcbd5096e91ab4c80888a24a546d4f75ff4081d11beaa783ad9aef846040516105069190610c6e565b60405180910390a3505050565b6000604051905090565b600080fd5b600080fd5b600073ffffffffffffffffffffffffffffffffffffffff82169050919050565b600061055282610527565b9050919050565b61056281610547565b811461056d57600080fd5b50565b60008135905061057f81610559565b92915050565b60006020828403121561059b5761059a61051d565b5b60006105a984828501610570565b91505092915050565b60008115159050919050565b6105c7816105b2565b82525050565b60006020820190506105e260008301846105be565b92915050565b6000819050919050565b6105fb816105e8565b811461060657600080fd5b50565b600081359050610618816105f2565b92915050565b6000602082840312156106345761063361051d565b5b600061064284828501610609565b91505092915050565b600081519050919050565b600082825260208201905092915050565b60005b8381101561068557808201518184015260208101905061066a565b60008484015250505050565b6000601f19601f8301169050919050565b60006106ad8261064b565b6106b78185610656565b93506106c7818560208601610667565b6106d081610691565b840191505092915050565b6000819050919050565b6106ee816106db565b82525050565b6106fd81610547565b82525050565b600060a082019050818103600083015261071d81886106a2565b9050818103602083015261073181876106a2565b905061074060408301866106e5565b61074d60608301856106f4565b61075a60808301846105be565b9695505050505050565b600080fd5b600080fd5b7f4e487b7100000000000000000000000000000000000000000000000000000000600052604160045260246000fd5b6107a682610691565b810181811067ffffffffffffffff821117156107c5576107c461076e565b5b80604052505050565b60006107d8610513565b90506107e4828261079d565b919050565b600067ffffffffffffffff8211156108045761080361076e565b5b61080d82610691565b9050602081019050919050565b82818337600083830152505050565b600061083c610837846107e9565b6107ce565b90508281526020810184848401111561085857610857610769565b5b61086384828561081a565b509392505050565b600082601f8301126108805761087f610764565b5b8135610890848260208601610829565b91505092915050565b6000806000606084860312156108b2576108b161051d565b5b60006108c086828701610609565b935050602084013567ffffffffffffffff8111156108e1576108e0610522565b5b6108ed8682870161086b565b925050604084013567ffffffffffffffff81111561090e5761090d610522565b5b61091a8682870161086b565b9150509250925092565b7f4e487b7100000000000000000000000000000000000000000000000000000000600052602260045260246000fd5b6000600282049050600182168061096b57607f821691505b60208210810361097e5761097d610924565b5b50919050565b7f4e6f7420617574686f72697a656420696e737469747574696f6e000000000000600082015250565b60006109ba601a83610656565b91506109c582610984565b602082019050919050565b600060208201905081810360008301526109e9816109ad565b9050919050565b60008190508160005260206000209050919050565b60006020601f8301049050919050565b600082821b905092915050565b600060088302610a527fffffffffffffffffffffffffffffffffffffffffffffffffffffffffffffffff82610a15565b610a5c8683610a15565b95508019841693508086168417925050509392505050565b6000819050919050565b6000610a99610a94610a8f846106db565b610a74565b6106db565b9050919050565b6000819050919050565b610ab383610a7e565b610ac7610abf82610aa0565b848454610a22565b825550505050565b600090565b610adc610acf565b610ae7818484610aaa565b505050565b5b81811015610b0b57610b00600082610ad4565b600181019050610aed565b5050565b601f821115610b5057610b21816109f0565b610b2a84610a05565b81016020851015610b39578190505b610b4d610b4585610a05565b830182610aec565b50505b505050565b600082821c905092915050565b6000610b7360001984600802610b55565b1980831691505092915050565b6000610b8c8383610b62565b9150826002028217905092915050565b610ba58261064b565b67ffffffffffffffff811115610bbe57610bbd61076e565b5b610bc88254610953565b610bd3828285610b0f565b600060209050601f831160018114610c065760008415610bf4578287015190505b610bfe8582610b80565b865550610c66565b601f198416610c14866109f0565b60005b82811015610c3c57848901518255600182019150602085019450602081019050610c17565b86831015610c595784890151610c55601f891682610b62565b8355505b6001600288020188555050505b505050505050565b60006020820190508181036000830152610c8881846106a2565b90509291505056fea2646970667358221220ef0ea5563411542920ed93c91138035366abd82f74e505678bed702ef85179de64736f6c63430008130033",
  "linkReferences": {},
  "deployedLinkReferences": {}
}