{
  "_format": "hh-sol-artifact-1",
  "contractName": "CredentialRegistry",
  "sourceName": "contracts/CredentialRegistry.sol",
  "abi": [
    {
      "inputs": [
        {
          "internalType": "address",
          "name": "_institutionRegistry",
          "type": "address"
        }
      ],
      "stateMutability": "nonpayable",
      "type": "constructor"
    },
    {
      "anonymous": false,
      "inputs": [
        {
          "indexed": true,
          "internalType": "bytes32",
          "name": "credentialId",
          "type": "bytes32"
        },
        {
          "indexed": true,
          "internalType": "address",
          "name": "student",
          "type": "address"
        },
        {
          "indexed": true,
          "internalType": "address",
          "name": "institution",
          "type": "address"
        },
        {
          "indexed": false,
          "internalType": "string",
          "name": "credentialType",
          "type": "string"
        }
      ],
      "name": "CredentialIssued",
      "type": "event"
    },
    {
      "anonymous": false,
      "inputs": [
        {
          "indexed": true,
          "internalType": "bytes32",
          "name": "credentialId",
          "type": "bytes32"
        }
      ],
      "name": "CredentialRevoked",
      "type": "event"
    },
    {
      "inputs": [
        {
          "internalType": "bytes32",
          "name": "",
          "type": "bytes32"
        }
      ],
      "name": "credentials",
      "outputs": [
        {
          "internalType": "bytes32",
          "name": "credentialId",
          "type": "bytes32"
        },
        {
          "internalType": "address",
          "name": "student",
          "type": "address"
        },
        {
          "internalType": "address",
          "name": "institution",
          "type": "address"
        },
        {
          "internalType": "string",
          "name": "credentialType",
          "type": "string"
        },
        {
          "internalType": "string",
          "name": "program",
          "type": "string"
        },
        {
          "internalType": "string",
          "name": "grade",
          "type": "string"
        },
        {
          "internalType": "string",
          "name": "ipfsHash",
          "type": "string"
        },
        {
          "internalType": "uint256",
          "name": "issueDate",
          "type": "uint256"
        },
        {
          "internalType": "uint256",
          "name": "expiryDate",
          "type": "uint256"
        },
        {
          "internalType": "bool",
          "name": "isRevoked",
          "type": "bool"
        }
      ],
      "stateMutability": "view",
      "type": "function"
    },
    {
      "inputs": [
        {
          "internalType": "bytes32",
          "name": "_credentialId",
          "type": "bytes32"
        }
      ],
      "name": "getCredentialDetails",
      "outputs": [
        {
          "components": [
            {
              "internalType": "bytes32",
              "name": "credentialId",
              "type": "bytes32"
            },
            {
              "internalType": "address",
              "name": "student",
              "type": "address"
            },
            {
              "internalType": "address",
              "name": "institution",
              "type": "address"
            },
            {
              "internalType": "string",
              "name": "credentialType",
              "type": "string"
            },
            {
              "internalType": "string",
              "name": "program",
              "type": "string"
            },
            {
              "internalType": "string",
              "name": "grade",
              "type": "string"
            },
            {
              "internalType": "string",
              "name": "ipfsHash",
              "type": "string"
            },
            {
              "internalType": "uint256",
              "name": "issueDate",
              "type": "uint256"
            },
            {
              "internalType": "uint256",
              "name": "expiryDate",
              "type": "uint256"
            },
            {
              "internalType": "bool",
              "name": "isRevoked",
              "type": "bool"
            }
          ],
          "internalType": "struct CredentialRegistry.Credential",
          "name": "",
          "type": "tuple"
        }
      ],
      "stateMutability": "view",
      "type": "function"
    },
    {
      "inputs": [
        {
          "internalType": "address",
          "name": "_student",
          "type": "address"
        }
      ],
      "name": "getStudentCredentials",
      "outputs": [
        {
          "internalType": "bytes32[]",
          "name": "",
          "type": "bytes32[]"
        }
      ],
      "stateMutability": "view",
      "type": "function"
    },
    {
      "inputs": [
        {
          "internalType": "address",
          "name": "",
          "type": "address"
        },
        {
          "internalType": "uint256",
          "name": "",
          "type": "uint256"
        }
      ],
      "name": "institutionCredentials",
      "outputs": [
        {
          "internalType": "bytes32",
          "name": "",
          "type": "bytes32"
        }
      ],
      "stateMutability": "view",
      "type": "function"
    },
    {
      "inputs": [],
      "name": "institutionRegistry",
      "outputs": [
        {
          "internalType": "contract InstitutionRegistry",
          "name": "",
          "type": "address"
        }
      ],
      "stateMutability": "view",
      "type": "function"
    },
    {
      "inputs": [
        {
          "internalType": "address",
          "name": "_student",
          "type": "address"
        },
        {
          "internalType": "string",
          "name": "_credentialType",
          "type": "string"
        },
        {
          "internalType": "string",
          "name": "_program",
          "type": "string"
        },
        {
          "internalType": "string",
          "name": "_grade",
          "type": "string"
        },
        {
          "internalType": "string",
          "name": "_ipfsHash",
          "type": "string"
        },
        {
          "internalType": "uint256",
          "name": "_expiryDate",
          "type": "uint256"
        }
      ],
      "name": "issueCredential",
      "outputs": [
        {
          "internalType": "bytes32",
          "name": "",
          "type": "bytes32"
        }
      ],
      "stateMutability": "nonpayable",
      "type": "function"
    },
    {
      "inputs": [
        {
          "internalType": "bytes32",
          "name": "_credentialId",
          "type": "bytes32"
        }
      ],
      "name": "revokeCredential",
      "outputs": [],
      "stateMutability": "nonpayable",
      "type": "function"
    },
    {
      "inputs": [
        {
          "internalType": "address",
          "name": "",
          "type": "address"
        },
        {
          "internalType": "uint256",
          "name": "",
          "type": "uint256"
        }
      ],
      "name": "studentCredentials",
      "outputs": [
        {
          "internalType": "bytes32",
          "name": "",
          "type": "bytes32"
        }
      ],
      "stateMutability": "view",
      "type": "function"
    },
    {
      "inputs": [
        {
          "internalType": "bytes32",
          "name": "_credentialId",
          "type": "bytes32"
        }
      ],
      "name": "verifyCredential",
      "outputs": [
        {
          "internalType": "bool",
          "name": "isValid",
          "type": "bool"
        },
        {
          "internalType": "address",
          "name": "student",
          "type": "address"
        },
        {
          "internalType": "address",
          "name": "institution",
          "type": "address"
        },
        {
          "internalType": "string",
          "name": "credentialType",
          "type": "string"
        },
        {
          "internalType": "string",
          "name": "program",
          "type": "string"
        },
        {
          "internalType": "string",
          "name": "grade",
          "type": "string"
        },
        {
          "internalType": "uint256",
          "name": "issueDate",
          "type": "uint256"
        },
        {
          "internalType": "uint256",
          "name": "expiryDate",
          "type": "uint256"
        }
      ],
      "stateMutability": "view",
      "type": "function"
    }
  ],
  "bytecode": "0x60806040523480156200001157600080fd5b506040516200268f3803806200268f8339818101604052810190620000379190620000e8565b806000806101000a81548173ffffffffffffffffffffffffffffffffffffffff021916908373ffffffffffffffffffffffffffffffffffffffff160217905550506200011a565b600080fd5b600073ffffffffffffffffffffffffffffffffffffffff82169050919050565b6000620000b08262000083565b9050919050565b620000c281620000a3565b8114620000ce57600080fd5b50565b600081519050620000e281620000b7565b92915050565b6000602082840312156200010157620001006200007e565b5b60006200011184828501620000d1565b91505092915050565b612565806200012a6000396000f3fe608060405234801561001057600080fd5b50600436106100935760003560e01c8063299d034811610066578063299d0348146101465780634dbf87cc1461017f57806355bedcbb146101b6578063ca6eec78146101e6578063e715ce5d1461020257610093565b806306403ae1146100985780630dd308cd146100c85780631b1fcb04146100f8578063218cdc3214610116575b600080fd5b6100b260048036038101906100ad91906116e8565b610232565b6040516100bf91906117fe565b60405180910390f35b6100e260048036038101906100dd9190611819565b610784565b6040516100ef91906117fe565b60405180910390f35b6101006107b5565b60405161010d91906118b8565b60405180910390f35b610130600480360381019061012b91906118d3565b6107d9565b60405161013d91906119be565b60405180910390f35b610160600480360381019061015b9190611a0c565b610870565b6040516101769a99989796959493929190611af1565b60405180910390f35b61019960048036038101906101949190611a0c565b610b31565b6040516101ad989796959493929190611ba9565b60405180910390f35b6101d060048036038101906101cb9190611819565b610fa1565b6040516101dd91906117fe565b60405180910390f35b61020060048036038101906101fb9190611a0c565b610fd2565b005b61021c60048036038101906102179190611a0c565b61111b565b6040516102299190611da2565b60405180910390f35b60008060009054906101000a900473ffffffffffffffffffffffffffffffffffffffff1673ffffffffffffffffffffffffffffffffffffffff1663d93ec2b6336040518263ffffffff1660e01b815260040161028e9190611dc4565b602060405180830381865afa1580156102ab573d6000803e3d6000fd5b505050506040513d601f19601f820116820180604052508101906102cf9190611e0b565b61030e576040517f08c379a000000000000000000000000000000000000000000000000000000000815260040161030590611e84565b60405180910390fd5b600073ffffffffffffffffffffffffffffffffffffffff168773ffffffffffffffffffffffffffffffffffffffff160361037d576040517f08c379a000000000000000000000000000000000000000000000000000000000815260040161037490611ef0565b60405180910390fd5b60008651116103c1576040517f08c379a00000000000000000000000000000000000000000000000000000000081526004016103b890611f5c565b60405180910390fd5b428211610403576040517f08c379a00000000000000000000000000000000000000000000000000000000081526004016103fa90611fc8565b60405180910390fd5b60008733888842436040516020016104209695949392919061208d565b6040516020818303038152906040528051906020012090506000801b600160008381526020019081526020016000206000015414610493576040517f08c379a000000000000000000000000000000000000000000000000000000000815260040161048a90612141565b60405180910390fd5b6040518061014001604052808281526020018973ffffffffffffffffffffffffffffffffffffffff1681526020013373ffffffffffffffffffffffffffffffffffffffff16815260200188815260200187815260200186815260200185815260200142815260200184815260200160001515815250600160008381526020019081526020016000206000820151816000015560208201518160010160006101000a81548173ffffffffffffffffffffffffffffffffffffffff021916908373ffffffffffffffffffffffffffffffffffffffff16021790555060408201518160020160006101000a81548173ffffffffffffffffffffffffffffffffffffffff021916908373ffffffffffffffffffffffffffffffffffffffff16021790555060608201518160030190816105c89190612363565b5060808201518160040190816105de9190612363565b5060a08201518160050190816105f49190612363565b5060c082015181600601908161060a9190612363565b5060e0820151816007015561010082015181600801556101208201518160090160006101000a81548160ff021916908315150217905550905050600260008973ffffffffffffffffffffffffffffffffffffffff1673ffffffffffffffffffffffffffffffffffffffff168152602001908152602001600020819080600181540180825580915050600190039060005260206000200160009091909190915055600360003373ffffffffffffffffffffffffffffffffffffffff1673ffffffffffffffffffffffffffffffffffffffff1681526020019081526020016000208190806001815401808255809150506001900390600052602060002001600090919091909150553373ffffffffffffffffffffffffffffffffffffffff168873ffffffffffffffffffffffffffffffffffffffff16827f8fbd2b7cfb4db91a4f4b683fc96c73b5adc9f9aee31b983df603621b12c549878a60405161076e9190612435565b60405180910390a4809150509695505050505050565b600260205281600052604060002081815481106107a057600080fd5b90600052602060002001600091509150505481565b60008054906101000a900473ffffffffffffffffffffffffffffffffffffffff1681565b6060600260008373ffffffffffffffffffffffffffffffffffffffff1673ffffffffffffffffffffffffffffffffffffffff16815260200190815260200160002080548060200260200160405190810160405280929190818152602001828054801561086457602002820191906000526020600020905b815481526020019060010190808311610850575b50505050509050919050565b60016020528060005260406000206000915090508060000154908060010160009054906101000a900473ffffffffffffffffffffffffffffffffffffffff16908060020160009054906101000a900473ffffffffffffffffffffffffffffffffffffffff16908060030180546108e590612190565b80601f016020809104026020016040519081016040528092919081815260200182805461091190612190565b801561095e5780601f106109335761010080835404028352916020019161095e565b820191906000526020600020905b81548152906001019060200180831161094157829003601f168201915b50505050509080600401805461097390612190565b80601f016020809104026020016040519081016040528092919081815260200182805461099f90612190565b80156109ec5780601f106109c1576101008083540402835291602001916109ec565b820191906000526020600020905b8154815290600101906020018083116109cf57829003601f168201915b505050505090806005018054610a0190612190565b80601f0160208091040260200160405190810160405280929190818152602001828054610a2d90612190565b8015610a7a5780601f10610a4f57610100808354040283529160200191610a7a565b820191906000526020600020905b815481529060010190602001808311610a5d57829003601f168201915b505050505090806006018054610a8f90612190565b80601f0160208091040260200160405190810160405280929190818152602001828054610abb90612190565b8015610b085780601f10610add57610100808354040283529160200191610b08565b820191906000526020600020905b815481529060010190602001808311610aeb57829003601f168201915b5050505050908060070154908060080154908060090160009054906101000a900460ff1690508a565b600080600060608060606000806000600160008b815260200190815260200160002060405180610140016040529081600082015481526020016001820160009054906101000a900473ffffffffffffffffffffffffffffffffffffffff1673ffffffffffffffffffffffffffffffffffffffff1673ffffffffffffffffffffffffffffffffffffffff1681526020016002820160009054906101000a900473ffffffffffffffffffffffffffffffffffffffff1673ffffffffffffffffffffffffffffffffffffffff1673ffffffffffffffffffffffffffffffffffffffff168152602001600382018054610c2590612190565b80601f0160208091040260200160405190810160405280929190818152602001828054610c5190612190565b8015610c9e5780601f10610c7357610100808354040283529160200191610c9e565b820191906000526020600020905b815481529060010190602001808311610c8157829003601f168201915b50505050508152602001600482018054610cb790612190565b80601f0160208091040260200160405190810160405280929190818152602001828054610ce390612190565b8015610d305780601f10610d0557610100808354040283529160200191610d30565b820191906000526020600020905b815481529060010190602001808311610d1357829003601f168201915b50505050508152602001600582018054610d4990612190565b80601f0160208091040260200160405190810160405280929190818152602001828054610d7590612190565b8015610dc25780601f10610d9757610100808354040283529160200191610dc2565b820191906000526020600020905b815481529060010190602001808311610da557829003601f168201915b50505050508152602001600682018054610ddb90612190565b80601f0160208091040260200160405190810160405280929190818152602001828054610e0790612190565b8015610e545780601f10610e2957610100808354040283529160200191610e54565b820191906000526020600020905b815481529060010190602001808311610e3757829003601f168201915b5050505050815260200160078201548152602001600882015481526020016009820160009054906101000a900460ff16151515158152505090506000801b816000015114158015610ea85750806101200151155b8015610eb8575042816101000151115b8015610f5e575060008054906101000a900473ffffffffffffffffffffffffffffffffffffffff1673ffffffffffffffffffffffffffffffffffffffff1663d93ec2b682604001516040518263ffffffff1660e01b8152600401610f1c9190611dc4565b602060405180830381865afa158015610f39573d6000803e3d6000fd5b505050506040513d601f19601f82011682018060405250810190610f5d9190611e0b565b5b98508881602001518260400151836060015184608001518560a001518660e001518761010001519850985098509850985098509850985050919395975091939597565b60036020528160005260406000208181548110610fbd57600080fd5b90600052602060002001600091509150505481565b60006001600083815260200190815260200160002090503373ffffffffffffffffffffffffffffffffffffffff168160020160009054906101000a900473ffffffffffffffffffffffffffffffffffffffff1673ffffffffffffffffffffffffffffffffffffffff161461107b576040517f08c379a0000000000000000000000000000000000000000000000000000000008152600401611072906124a3565b60405180910390fd5b8060090160009054906101000a900460ff16156110cd576040517f08c379a00000000000000000000000000000000000000000000000000000000081526004016110c49061250f565b60405180910390fd5b60018160090160006101000a81548160ff021916908315150217905550817f3cc2375f3fc7711ba27361cde93880f578742f9f050acee766bed662d117ba7260405160405180910390a25050565b611123611476565b6001600083815260200190815260200160002060405180610140016040529081600082015481526020016001820160009054906101000a900473ffffffffffffffffffffffffffffffffffffffff1673ffffffffffffffffffffffffffffffffffffffff1673ffffffffffffffffffffffffffffffffffffffff1681526020016002820160009054906101000a900473ffffffffffffffffffffffffffffffffffffffff1673ffffffffffffffffffffffffffffffffffffffff1673ffffffffffffffffffffffffffffffffffffffff16815260200160038201805461120890612190565b80601f016020809104026020016040519081016040528092919081815260200182805461123490612190565b80156112815780601f1061125657610100808354040283529160200191611281565b820191906000526020600020905b81548152906001019060200180831161126457829003601f168201915b5050505050815260200160048201805461129a90612190565b80601f01602080910402602001604051908101604052809291908181526020018280546112c690612190565b80156113135780601f106112e857610100808354040283529160200191611313565b820191906000526020600020905b8154815290600101906020018083116112f657829003601f168201915b5050505050815260200160058201805461132c90612190565b80601f016020809104026020016040519081016040528092919081815260200182805461135890612190565b80156113a55780601f1061137a576101008083540402835291602001916113a5565b820191906000526020600020905b81548152906001019060200180831161138857829003601f168201915b505050505081526020016006820180546113be90612190565b80601f01602080910402602001604051908101604052809291908181526020018280546113ea90612190565b80156114375780601f1061140c57610100808354040283529160200191611437565b820191906000526020600020905b81548152906001019060200180831161141a57829003601f168201915b5050505050815260200160078201548152602001600882015481526020016009820160009054906101000a900460ff1615151515815250509050919050565b60405180610140016040528060008019168152602001600073ffffffffffffffffffffffffffffffffffffffff168152602001600073ffffffffffffffffffffffffffffffffffffffff1681526020016060815260200160608152602001606081526020016060815260200160008152602001600081526020016000151581525090565b6000604051905090565b600080fd5b600080fd5b600073ffffffffffffffffffffffffffffffffffffffff82169050919050565b60006115398261150e565b9050919050565b6115498161152e565b811461155457600080fd5b50565b60008135905061156681611540565b92915050565b600080fd5b600080fd5b6000601f19601f8301169050919050565b7f4e487b7100000000000000000000000000000000000000000000000000000000600052604160045260246000fd5b6115bf82611576565b810181811067ffffffffffffffff821117156115de576115dd611587565b5b80604052505050565b60006115f16114fa565b90506115fd82826115b6565b919050565b600067ffffffffffffffff82111561161d5761161c611587565b5b61162682611576565b9050602081019050919050565b82818337600083830152505050565b600061165561165084611602565b6115e7565b90508281526020810184848401111561167157611670611571565b5b61167c848285611633565b509392505050565b600082601f8301126116995761169861156c565b5b81356116a9848260208601611642565b91505092915050565b6000819050919050565b6116c5816116b2565b81146116d057600080fd5b50565b6000813590506116e2816116bc565b92915050565b60008060008060008060c0878903121561170557611704611504565b5b600061171389828a01611557565b965050602087013567ffffffffffffffff81111561173457611733611509565b5b61174089828a01611684565b955050604087013567ffffffffffffffff81111561176157611760611509565b5b61176d89828a01611684565b945050606087013567ffffffffffffffff81111561178e5761178d611509565b5b61179a89828a01611684565b935050608087013567ffffffffffffffff8111156117bb576117ba611509565b5b6117c789828a01611684565b92505060a06117d889828a016116d3565b9150509295509295509295565b6000819050919050565b6117f8816117e5565b82525050565b600060208201905061181360008301846117ef565b92915050565b600080604083850312156118305761182f611504565b5b600061183e85828601611557565b925050602061184f858286016116d3565b9150509250929050565b6000819050919050565b600061187e6118796118748461150e565b611859565b61150e565b9050919050565b600061189082611863565b9050919050565b60006118a282611885565b9050919050565b6118b281611897565b82525050565b60006020820190506118cd60008301846118a9565b92915050565b6000602082840312156118e9576118e8611504565b5b60006118f784828501611557565b91505092915050565b600081519050919050565b600082825260208201905092915050565b6000819050602082019050919050565b611935816117e5565b82525050565b6000611947838361192c565b60208301905092915050565b6000602082019050919050565b600061196b82611900565b611975818561190b565b93506119808361191c565b8060005b838110156119b1578151611998888261193b565b97506119a383611953565b925050600181019050611984565b5085935050505092915050565b600060208201905081810360008301526119d88184611960565b905092915050565b6119e9816117e5565b81146119f457600080fd5b50565b600081359050611a06816119e0565b92915050565b600060208284031215611a2257611a21611504565b5b6000611a30848285016119f7565b91505092915050565b611a428161152e565b82525050565b600081519050919050565b600082825260208201905092915050565b60005b83811015611a82578082015181840152602081019050611a67565b60008484015250505050565b6000611a9982611a48565b611aa38185611a53565b9350611ab3818560208601611a64565b611abc81611576565b840191505092915050565b611ad0816116b2565b82525050565b60008115159050919050565b611aeb81611ad6565b82525050565b600061014082019050611b07600083018d6117ef565b611b14602083018c611a39565b611b21604083018b611a39565b8181036060830152611b33818a611a8e565b90508181036080830152611b478189611a8e565b905081810360a0830152611b5b8188611a8e565b905081810360c0830152611b6f8187611a8e565b9050611b7e60e0830186611ac7565b611b8c610100830185611ac7565b611b9a610120830184611ae2565b9b9a5050505050505050505050565b600061010082019050611bbf600083018b611ae2565b611bcc602083018a611a39565b611bd96040830189611a39565b8181036060830152611beb8188611a8e565b90508181036080830152611bff8187611a8e565b905081810360a0830152611c138186611a8e565b9050611c2260c0830185611ac7565b611c2f60e0830184611ac7565b9998505050505050505050565b611c458161152e565b82525050565b600082825260208201905092915050565b6000611c6782611a48565b611c718185611c4b565b9350611c81818560208601611a64565b611c8a81611576565b840191505092915050565b611c9e816116b2565b82525050565b611cad81611ad6565b82525050565b600061014083016000830151611ccc600086018261192c565b506020830151611cdf6020860182611c3c565b506040830151611cf26040860182611c3c565b5060608301518482036060860152611d0a8282611c5c565b91505060808301518482036080860152611d248282611c5c565b91505060a083015184820360a0860152611d3e8282611c5c565b91505060c083015184820360c0860152611d588282611c5c565b91505060e0830151611d6d60e0860182611c95565b50610100830151611d82610100860182611c95565b50610120830151611d97610120860182611ca4565b508091505092915050565b60006020820190508181036000830152611dbc8184611cb3565b905092915050565b6000602082019050611dd96000830184611a39565b92915050565b611de881611ad6565b8114611df357600080fd5b50565b600081519050611e0581611ddf565b92915050565b600060208284031215611e2157611e20611504565b5b6000611e2f84828501611df6565b91505092915050565b7f4e6f742061207265676973746572656420696e737469747574696f6e00000000600082015250565b6000611e6e601c83611a53565b9150611e7982611e38565b602082019050919050565b60006020820190508181036000830152611e9d81611e61565b9050919050565b7f496e76616c69642073747564656e742061646472657373000000000000000000600082015250565b6000611eda601783611a53565b9150611ee582611ea4565b602082019050919050565b60006020820190508181036000830152611f0981611ecd565b9050919050565b7f43726564656e7469616c20747970652072657175697265640000000000000000600082015250565b6000611f46601883611a53565b9150611f5182611f10565b602082019050919050565b60006020820190508181036000830152611f7581611f39565b9050919050565b7f496e76616c696420657870697279206461746500000000000000000000000000600082015250565b6000611fb2601383611a53565b9150611fbd82611f7c565b602082019050919050565b60006020820190508181036000830152611fe181611fa5565b9050919050565b60008160601b9050919050565b600061200082611fe8565b9050919050565b600061201282611ff5565b9050919050565b61202a6120258261152e565b612007565b82525050565b600081905092915050565b600061204682611a48565b6120508185612030565b9350612060818560208601611a64565b80840191505092915050565b6000819050919050565b612087612082826116b2565b61206c565b82525050565b60006120998289612019565b6014820191506120a98288612019565b6014820191506120b9828761203b565b91506120c5828661203b565b91506120d18285612076565b6020820191506120e18284612076565b602082019150819050979650505050505050565b7f43726564656e7469616c20616c72656164792065786973747300000000000000600082015250565b600061212b601983611a53565b9150612136826120f5565b602082019050919050565b6000602082019050818103600083015261215a8161211e565b9050919050565b7f4e487b7100000000000000000000000000000000000000000000000000000000600052602260045260246000fd5b600060028204905060018216806121a857607f821691505b6020821081036121bb576121ba612161565b5b50919050565b60008190508160005260206000209050919050565b60006020601f8301049050919050565b600082821b905092915050565b6000600883026122237fffffffffffffffffffffffffffffffffffffffffffffffffffffffffffffffff826121e6565b61222d86836121e6565b95508019841693508086168417925050509392505050565b600061226061225b612256846116b2565b611859565b6116b2565b9050919050565b6000819050919050565b61227a83612245565b61228e61228682612267565b8484546121f3565b825550505050565b600090565b6122a3612296565b6122ae818484612271565b505050565b5b818110156122d2576122c760008261229b565b6001810190506122b4565b5050565b601f821115612317576122e8816121c1565b6122f1846121d6565b81016020851015612300578190505b61231461230c856121d6565b8301826122b3565b50505b505050565b600082821c905092915050565b600061233a6000198460080261231c565b1980831691505092915050565b60006123538383612329565b9150826002028217905092915050565b61236c82611a48565b67ffffffffffffffff81111561238557612384611587565b5b61238f8254612190565b61239a8282856122d6565b600060209050601f8311600181146123cd57600084156123bb578287015190505b6123c58582612347565b86555061242d565b601f1984166123db866121c1565b60005b82811015612403578489015182556001820191506020850194506020810190506123de565b86831015612420578489015161241c601f891682612329565b8355505b6001600288020188555050505b505050505050565b6000602082019050818103600083015261244f8184611a8e565b905092915050565b7f4e6f7420617574686f72697a656420746f207265766f6b650000000000000000600082015250565b600061248d601883611a53565b915061249882612457565b602082019050919050565b600060208201905081810360008301526124bc81612480565b9050919050565b7f43726564656e7469616c20616c7265616479207265766f6b6564000000000000600082015250565b60006124f9601a83611a53565b9150612504826124c3565b602082019050919050565b60006020820190508181036000830152612528816124ec565b905091905056fea2646970667358221220565f376e62239f8ec51d222034eefb8db577dab3b7858a1c628eede180e846de64736f6c63430008130033",
  "linkReferences": {},
  "deployedLinkReferences": {}
}